{
  "_format": "hh-sol-artifact-1",
  "contractName": "Poll",
  "sourceName": "contracts/Poll.sol",
  "abi": [
    {
      "inputs": [
        {
          "internalType": "uint256",
          "name": "_duration",
          "type": "uint256"
        }
      ],
      "stateMutability": "nonpayable",
      "type": "constructor"
    },
    {
      "anonymous": false,
      "inputs": [
        {
          "indexed": true,
          "internalType": "uint256",
          "name": "_OptionId",
          "type": "uint256"
        }
      ],
      "name": "votedEvent",
      "type": "event"
    },
    {
      "inputs": [],
      "name": "deadline",
      "outputs": [
        {
          "internalType": "uint256",
          "name": "",
          "type": "uint256"
        }
      ],
      "stateMutability": "view",
      "type": "function"
    },
    {
      "inputs": [
        {
          "internalType": "uint256",
          "name": "",
          "type": "uint256"
        }
      ],
      "name": "options",
      "outputs": [
        {
          "internalType": "uint256",
          "name": "optionId",
          "type": "uint256"
        },
        {
          "internalType": "string",
          "name": "title",
          "type": "string"
        },
        {
          "internalType": "uint256",
          "name": "votes",
          "type": "uint256"
        }
      ],
      "stateMutability": "view",
      "type": "function"
    },
    {
      "inputs": [],
      "name": "optionsCount",
      "outputs": [
        {
          "internalType": "uint256",
          "name": "",
          "type": "uint256"
        }
      ],
      "stateMutability": "view",
      "type": "function"
    },
    {
      "inputs": [],
      "name": "pollHasEnded",
      "outputs": [
        {
          "internalType": "bool",
          "name": "",
          "type": "bool"
        }
      ],
      "stateMutability": "view",
      "type": "function"
    },
    {
      "inputs": [
        {
          "internalType": "uint256",
          "name": "_optionId",
          "type": "uint256"
        }
      ],
      "name": "vote",
      "outputs": [],
      "stateMutability": "nonpayable",
      "type": "function"
    },
    {
      "inputs": [
        {
          "internalType": "address",
          "name": "",
          "type": "address"
        }
      ],
      "name": "voters",
      "outputs": [
        {
          "internalType": "bool",
          "name": "",
          "type": "bool"
        }
      ],
      "stateMutability": "view",
      "type": "function"
    }
  ],
  "bytecode": "0x60806040523480156200001157600080fd5b5060405162000b6d38038062000b6d833981810160405281019062000037919062000262565b6200007d6040518060400160405280600881526020017f4f7074696f6e2031000000000000000000000000000000000000000000000000815250620000ec60201b60201c565b620000c36040518060400160405280600881526020017f4f7074696f6e2032000000000000000000000000000000000000000000000000815250620000ec60201b60201c565b603c81620000d29190620002c3565b42620000df919062000324565b6004819055505062000434565b60036000815480929190620001019062000381565b91905055506040518060600160405280600354815260200182815260200160008152506002600060035481526020019081526020016000206000820151816000015560208201518160010190805190602001906200016192919062000172565b506040820151816002015590505050565b8280546200018090620003fe565b90600052602060002090601f016020900481019282620001a45760008555620001f0565b82601f10620001bf57805160ff1916838001178555620001f0565b82800160010185558215620001f0579182015b82811115620001ef578251825591602001919060010190620001d2565b5b509050620001ff919062000203565b5090565b5b808211156200021e57600081600090555060010162000204565b5090565b600080fd5b6000819050919050565b6200023c8162000227565b81146200024857600080fd5b50565b6000815190506200025c8162000231565b92915050565b6000602082840312156200027b576200027a62000222565b5b60006200028b848285016200024b565b91505092915050565b7f4e487b7100000000000000000000000000000000000000000000000000000000600052601160045260246000fd5b6000620002d08262000227565b9150620002dd8362000227565b9250817fffffffffffffffffffffffffffffffffffffffffffffffffffffffffffffffff048311821515161562000319576200031862000294565b5b828202905092915050565b6000620003318262000227565b91506200033e8362000227565b9250827fffffffffffffffffffffffffffffffffffffffffffffffffffffffffffffffff0382111562000376576200037562000294565b5b828201905092915050565b60006200038e8262000227565b91507fffffffffffffffffffffffffffffffffffffffffffffffffffffffffffffffff821415620003c457620003c362000294565b5b600182019050919050565b7f4e487b7100000000000000000000000000000000000000000000000000000000600052602260045260246000fd5b600060028204905060018216806200041757607f821691505b602082108114156200042e576200042d620003cf565b5b50919050565b61072980620004446000396000f3fe608060405234801561001057600080fd5b50600436106100625760003560e01c80630121b93f146100675780631a1dbabb1461008357806329dcb0cf146100a1578063409e2205146100bf578063a3ec138d146100f1578063cbc391a114610121575b600080fd5b610081600480360381019061007c91906103bf565b61013f565b005b61008b610299565b60405161009891906103fb565b60405180910390f35b6100a961029f565b6040516100b691906103fb565b60405180910390f35b6100d960048036038101906100d491906103bf565b6102a5565b6040516100e8939291906104af565b60405180910390f35b61010b6004803603810190610106919061054b565b610357565b6040516101189190610593565b60405180910390f35b610129610377565b6040516101369190610593565b60405180910390f35b6000803373ffffffffffffffffffffffffffffffffffffffff1673ffffffffffffffffffffffffffffffffffffffff16815260200190815260200160002060009054906101000a900460ff16156101cb576040517f08c379a00000000000000000000000000000000000000000000000000000000081526004016101c2906105fa565b60405180910390fd5b6000811180156101dd57506003548111155b6101e657600080fd5b60016000803373ffffffffffffffffffffffffffffffffffffffff1673ffffffffffffffffffffffffffffffffffffffff16815260200190815260200160002060006101000a81548160ff02191690831515021790555060026000828152602001908152602001600020600201600081548092919061026490610649565b9190505550807ffff3c900d938d21d0990d786e819f29b8d05c1ef587b462b939609625b684b1660405160405180910390a250565b60035481565b60045481565b60026020528060005260406000206000915090508060000154908060010180546102ce906106c1565b80601f01602080910402602001604051908101604052809291908181526020018280546102fa906106c1565b80156103475780601f1061031c57610100808354040283529160200191610347565b820191906000526020600020905b81548152906001019060200180831161032a57829003601f168201915b5050505050908060020154905083565b60006020528060005260406000206000915054906101000a900460ff1681565b6000600454421015905090565b600080fd5b6000819050919050565b61039c81610389565b81146103a757600080fd5b50565b6000813590506103b981610393565b92915050565b6000602082840312156103d5576103d4610384565b5b60006103e3848285016103aa565b91505092915050565b6103f581610389565b82525050565b600060208201905061041060008301846103ec565b92915050565b600081519050919050565b600082825260208201905092915050565b60005b83811015610450578082015181840152602081019050610435565b8381111561045f576000848401525b50505050565b6000601f19601f8301169050919050565b600061048182610416565b61048b8185610421565b935061049b818560208601610432565b6104a481610465565b840191505092915050565b60006060820190506104c460008301866103ec565b81810360208301526104d68185610476565b90506104e560408301846103ec565b949350505050565b600073ffffffffffffffffffffffffffffffffffffffff82169050919050565b6000610518826104ed565b9050919050565b6105288161050d565b811461053357600080fd5b50565b6000813590506105458161051f565b92915050565b60006020828403121561056157610560610384565b5b600061056f84828501610536565b91505092915050565b60008115159050919050565b61058d81610578565b82525050565b60006020820190506105a86000830184610584565b92915050565b7f596f75206861766520616c726561647920766f74656421000000000000000000600082015250565b60006105e4601783610421565b91506105ef826105ae565b602082019050919050565b60006020820190508181036000830152610613816105d7565b9050919050565b7f4e487b7100000000000000000000000000000000000000000000000000000000600052601160045260246000fd5b600061065482610389565b91507fffffffffffffffffffffffffffffffffffffffffffffffffffffffffffffffff8214156106875761068661061a565b5b600182019050919050565b7f4e487b7100000000000000000000000000000000000000000000000000000000600052602260045260246000fd5b600060028204905060018216806106d957607f821691505b602082108114156106ed576106ec610692565b5b5091905056fea2646970667358221220b3d9bfc3e9fb52f475fcbf2690251360c68f91a63642a3945404143815944b2f64736f6c63430008090033",
  "linkReferences": {},
  "deployedLinkReferences": {}
}